:100000000C943B010C9458010C9458010C94580129
:100010000C9458010C9458010C9458010C945801FC
:100020000C9458010C9458010C9458010C945801EC
:100030000C9458010C9458010C9458010C945801DC
:100040000C9458010C9458010C9458010C945801CC
:100050000C9458010C9458010C9458010C945801BC
:100060000C9458010C9458010C9458010C945801AC
:100070000C9458010C9458010C94580105A84CCDCF
:10008000B2D44EB93836A9020C50B9918688083CD2
:10009000A6AAAA2ABE000000803F08000000BE9267
:1000A0002449123EABAAAA2ABECDCCCC4C3E0000BD
:1000B0000080BEABAAAAAA3E00000000BF0000005C
:1000C000803F0000000000084178D3BB4387D11374
:1000D0003D190E3CC3BD4282AD2B3E68EC8276BE1C
:1000E000D98FE1A93E4C80EFFFBE01C4FF7F3F00E6
:1000F000000000000664EC1B3C04BC163E3BE5B966
:100100003CC93C37C29E5A3D660498083EEA69AA3B
:10011000AA3E000000803F07634236B79BD8A71A6B
:1001200039685618AEBAAB558C1D3CB7CC5763BD79
:100130006DEDFD753EF6177231BF000000803F0087
:100140004E414E494E495459494E46CDCCCC3D0ABC
:10015000D7233C17B7D13877CC2B329595E6241F9F
:10016000B14F0A000020410000C84200401C462058
:10017000BCBE4CCA1B0E5AAEC59D7400407A10F32B
:100180005A00A0724E18090010A5D4E80000E876C5
:1001900048170000E40B54020000CA9A3B0000001C
:1001A000E1F505000080969800000040420F000035
:1001B00000A08601000000102700000000E80300F6
:1001C0000000006400000000000A000000000001C0
:1001D00000000000002C76D888DC674F0823DFC1C0
:1001E000DFAE59E1B1B796E5E3E453C63AE651997B
:1001F0007696E8E6C28426EB898C9B62ED407C6FA4
:10020000FCEFBC9C9F40F2BAA56FA5F490055A2A5A
:10021000F75C936B6CF9676DC11BFCE0E40D47FE66
:10022000F520E6B500D0ED902E030094357705005B
:1002300080841E080000204E0A000000C80C3333E2
:1002400033330F986E12831141EF8D2114893BE6F1
:100250005516CFFEE6DB18D1844B381BF77C1D907A
:100260001DA4BBE424203284725E228100C9F124E3
:10027000ECA1E53D270011241FBECFEFD8E0DEBF83
:10028000CDBF11E0A0E0B1E0EEE6F2E202C00590E1
:100290000D92A636B107D9F721E0A6E6B1E001C07C
:1002A0001D92AC36B207E1F70E94F8060C943511A6
:1002B0000C94000098B19F70282F207F922B98B942
:1002C00098B19E7F98B998B1946098B935E03A9505
:1002D000F1F7000098B19B7F98B9EFE1F3E0319717
:1002E000F1F700C0000028B1F0E18F9FC001112498
:1002F000922F9F70892B88B988B1846088B935E0C6
:100300003A95F1F7000088B18B7F88B98FE39FE1C0
:100310000197F1F700C00000089598B19F70282F51
:10032000207F922B98B998B1916098B998B1946058
:1003300098B935E03A95F1F7000098B19B7F98B9EC
:1003400028B130E1839FC0011124922F9F70892B27
:1003500088B988B1846088B985E08A95F1F7000092
:1003600088B18B7F88B98FE39FE10197F1F700C0D7
:10037000000008958FEF87B92FEF89EF90E02150AB
:1003800080409040E1F700C0000082E00E945A01E6
:1003900088E20E945A018CE00E945A0181E00E948A
:1003A0005A010895CF93DF93EC0103C021960E9478
:1003B0008D0188818111FACFDF91CF910895EF925D
:1003C000FF920F931F93CF93DF937C018B0181E00A
:1003D0000E945A01C0E0D0E038C0F701EC0FFD1FC9
:1003E0008081833529F480E091E00E94D2012CC005
:1003F000813429F485E091E00E94D20125C08C343B
:1004000029F489E091E00E94D2011EC08C3629F4C3
:100410008DE091E00E94D20117C0833729F482E178
:1004200091E00E94D20110C0833629F486E191E068
:100430000E94D20109C0843729F480E591E00E942E
:10044000D20102C00E948D012196C017D1072CF263
:10045000DF91CF911F910F91FF90EF9008958853F6
:100460009F4F2FEF3FEFFC013183208308952FEF43
:100470003FEFFC0133AB22AB0895FC01E853FF4F83
:1004800020813181213331057CF42F5F3F4F31834F
:100490002083220F331F220F331FFC01E20FF31FB3
:1004A00040835183628373830895FC01E853FF4FB7
:1004B00020813181332354F481E090E090936901ED
:1004C0008093680160E070E0CB010895FC01E8537F
:1004D000FF4FA9014150510951834083220F331F1F
:1004E000220F331FFC01E20FF31F608171818281B3
:1004F00093810895FC0122A933A9213331053CF4ED
:100500002F5F3F4F33AB22ABE20FF31F60830895A1
:10051000FC0122A933A9332344F481E090E09093B5
:1005200069018093680180E00895A9014150510953
:10053000FC0153AB42ABE20FF31F80810895FC0135
:1005400022A933A9332324F0E20FF31F80810895F9
:1005500080E00895FC0122A933A981E02F3F3F4F9D
:1005600009F080E090E008958B32D9F08D32E1F00F
:100570008A32E9F08F32F1F08E35F9F08C3601F1E4
:10058000833509F1813411F18C3419F1813221F173
:10059000833629F1833731F1843739F584E090E0EF
:1005A000089581E090E0089581E090E0089582E070
:1005B00090E0089582E090E0089583E090E008954F
:1005C00083E090E0089584E090E0089584E090E076
:1005D000089584E090E0089584E090E0089584E038
:1005E00090E0089584E090E0089580E090E0089520
:1005F000CF92DF92EF92FF920F931F93CF93DF93EF
:100600006B017C0120E030E0A9010E94C50888232D
:100610005CF482E090E09093690180936801C12CC2
:10062000D12C00E010E023C0C701B6010E944109AF
:100630007B01C1E0D0E0C12CD12C00E81FE314C045
:10064000BE010D2E000C880B990B0E9479099B01AD
:10065000AC016C2D7D2D802F912F0E94C00AC62EDB
:10066000D72E082F192F2196EC16FD064CF76C2D6E
:100670007D2D802F912FDF91CF911F910F91FF90B2
:10068000EF90DF90CF9008957F928F929F92AF92DC
:10069000BF92CF92DF92EF92FF920F931F93CF936F
:1006A000DF93CDB7DEB7E4970FB6F894DEBF0FBE89
:1006B000CDBF5C016B01CE0101960E94370281E043
:1006C00090E000E010E0E12CF12CBBC02DE27212B2
:1006D0002CC0892B51F198012F5F3F4FF601E00F9D
:1006E000F11F8DE280838FEFE81AF80A09C0F60146
:1006F000E20FF31F9FEFE91AF90A80832F5F3F4F44
:10070000F501EE0DFF1D808190ED980F9A3078F382
:100710008E3269F389010F5F1F4FF601E20FF31F5D
:1007200080E2808380E090E08CC080ED870D8A308D
:1007300068F0EEE27E121EC009C0F601E00FF11F64
:100740002FEFE21AF20A80830F5F1F4FF501EE0DC3
:10075000FF1D808190ED980F9A3078F38E3269F307
:10076000F601E00FF11F80E280830F5F1F4F80E0F2
:1007700090E067C088E278120BC068E2CE01019673
:100780000E947A029FEFE91AF90A81E090E059C0CD
:10079000E9E27E1239C011C04601800E911ECE01E1
:1007A00001960E948802F4018083F8013196EC0DD5
:1007B000FD1D0E5F1F4F80E28083CE0101960E94D7
:1007C000AA02892B31F4CE0101960E949F02883241
:1007D00019F7CE0101960E948802FFEFEF1AFF0A77
:1007E00080E090E02EC04601800E911ECE01019661
:1007F0000E948802F4018083F8013196EC0DFD1D02
:100800000E5F1F4F80E28083CE0101960E94AA02F4
:10081000892B69F4CE0101960E949F020E94B402C6
:100820004C01872D0E94B40288169906E4F6672DC4
:10083000CE0101960E947A02FFEFEF1AFF0A81E0D3
:1008400090E0F501EE0DFF1D708071103FCF11C0DB
:100850007601E00EF11ECE0101960E948802F7019A
:100860008083F8013196EC0DFD1D0E5F1F4F80E275
:100870008083CE0101960E94AA02892B49F3F601DA
:10088000E00FF11F1082E4960FB6F894DEBF0FBEA2
:10089000CDBFDF91CF911F910F91FF90EF90DF902F
:1008A000CF90BF90AF909F908F907F9008958F9240
:1008B0009F92AF92BF92CF92DF92EF92FF921F93DF
:1008C000CF93DF93CDB7DEB7CA5CD1090FB6F894EA
:1008D000DEBF0FBECDBF7C01CE0101960E942F026C
:1008E0006AE171E0C7010E94140D95C1FC011081FD
:1008F00020ED210F2A3060F01D3241F401900020DC
:10090000E9F73197E81BF90B329710F41E3249F4DE
:100910000E94100DAB01BC01CE0101960E943D0268
:1009200074C1133569F0113459F01C3449F0133691
:1009300039F0133729F0143719F0113209F0B0C02B
:10094000CE0101960E9455026B017C0180916801E5
:1009500090916901892B09F066C11335F1F420E00B
:1009600030E0A901C701B6010E94C508882354F4EC
:1009700082E090E0909369018093680160E070E00C
:10098000CB0158C1C701B6010E948B0BAB01BC0162
:10099000CE0101960E943D0238C1113441F4B701E5
:1009A000A6017F77CE0101960E943D022EC11C3424
:1009B000F1F420E030E0A901C701B6010E94C508AA
:1009C000181654F082E090E09093690180936801DA
:1009D00060E070E0CB012EC1C701B6010E94680A39
:1009E000AB01BC01CE0101960E943D020EC1113245
:1009F00059F4C701B6010E94F802AB01BC01CE0157
:100A000001960E943D0201C11337B9F42BED3FE07E
:100A100049E450E4C701B6010E94C00A20E030E07A
:100A200044E353E40E94CF080E947D0BAB01BC015C
:100A3000CE0101960E943D02E8C01336B9F42BEDB9
:100A40003FE049E450E4C701B6010E94C00A20E03B
:100A500030E044E353E40E94CF080E94CA08AB018F
:100A6000BC01CE0101960E943D02CFC0143709F0AF
:100A7000CCC02BED3FE049E450E4C701B6010E9431
:100A8000C00A20E030E044E353E40E94CF080E9413
:100A9000CB0BAB01BC01CE0101960E943D02B5C05B
:100AA000CE0101960E9455024B015C01CE010196D8
:100AB0000E9455026B017C0180916801909169014F
:100AC000892B09F0B4C01D32E9F028F41A3239F14B
:100AD0001B3259F09AC01E3509F44EC01C3609F479
:100AE00058C01F3209F091C027C0A7019601C50167
:100AF000B4010E945908AB01BC01CE0101960E94CD
:100B00003D0283C0A5019401C701B6010E945808A7
:100B1000AB01BC01CE0101960E943D0276C0A70147
:100B20009601C501B4010E94C00AAB01BC01CE010F
:100B300001960E943D0269C020E030E0A901C50194
:100B4000B4010E94C50881110AC082E090E0909330
:100B500069018093680160E070E0CB016BC0A50182
:100B60009401C701B6010E94CF08AB01BC01CE01C0
:100B700001960E943D0249C0A5019401C701B6013A
:100B80000E942D0BAB01BC01CE0101960E943D02DB
:100B90003CC020E030E0A901C701B6010E94C508B1
:100BA00018169CF420E030E040E85FE3C701B6018E
:100BB0000E94C508882349F020E030E0A901C50162
:100BC000B4010E94C508181654F082E090E090939A
:100BD00069018093680160E070E0CB012BC0C50122
:100BE000B4010E94780A4B015C01C701B6010E9462
:100BF000780A9B01AC01C501B4010E94CF08AB018A
:100C0000BC01CE0101960E943D026AE171E080E0E4
:100C100090E00E94140D009709F068CECE01019675
:100C20000E94550207C060E070E0CB0103C060E0A5
:100C300070E0CB01C653DF4F0FB6F894DEBF0FBE96
:100C4000CDBFDF91CF911F91FF90EF90DF90CF90BC
:100C5000BF90AF909F908F9008958EEF8BB985E3F2
:100C60008A95F1F7000083B18F738B3369F028F414
:100C70008F3271F0873351F00DC08D3309F492C07B
:100C80008E3341F484E3089583E5089583E4089561
:100C90008DE408958DEF8BB985E38A95F1F7000017
:100CA00083B18F73873391F028F48F3199F08F32AD
:100CB00079F012C08D3309F477C08E3319F08B337D
:100CC00059F402C083E308958FE2089584E40895FF
:100CD00081E4089581E208958BEF8BB985E38A95CD
:100CE000F1F7000083B18F73873391F028F48F31CF
:100CF00099F08F3279F012C08D3309F457C08E33DA
:100D000019F08B3359F402C082E308958AE2089502
:100D10008EE2089581E2089584E7089587EF8BB904
:100D200085E38A95F1F7000083B18F73873389F0EB
:100D300028F48F3191F08F3271F011C08D33C1F1F1
:100D40008E3319F08B3359F402C081E308958DE29C
:100D500008958DE3089589E2089583E608958FEE5E
:100D60008BB985E38A95F1F7000083B18F738733E0
:100D700089F028F48F3191F08F3271F011C08D33EA
:100D8000C9F08E3319F08B3359F402C080E3089513
:100D90008BE208958EE5089588E2089583E708952B
:100DA00080E0089589E3089588E3089587E308952E
:100DB00086E3089585E30895CF930E942D06C82FFA
:100DC0008823D9F32FEF89EF90E0215080409040A5
:100DD000E1F700C000000E942D06C81306C00E9463
:100DE0002D068111FCCF8C2F01C080E0CF9108959A
:100DF000CF93DF93CDB7DEB7C85DD1090FB6F894B6
:100E0000DEBF0FBECDBF14B88FEF85B98AB987B9E1
:100E10000E94BA0100E010E00E94DC068D3309F068
:100E200050C001151105C1F3E1E0F0E0EC0FFD1F2A
:100E3000E00FF11F1082B801CE0101960E94DF0180
:100E40008DE30E948D011092690110926801BE012C
:100E50006B597F4FCE0101960E944403CE018B59FE
:100E60009F4F0E9457046B017C0180EC0E945A0145
:100E700080916801909169018130910529F48CE19C
:100E800091E00E94D20113C0029729F489E291E017
:100E90000E94D2010CC08E0107531F4F22E048E090
:100EA000C701B6010E94F00CC8010E94D2010E9445
:100EB000DC068334E1F781E00E945A0100E010E093
:100EC000ABCF833431F481E00E945A0100E010E09E
:100ED000A3CF843461F4101611060CF09DCF01509D
:100EE0001109B801CE0101960E94DF0195CF8D3422
:100EF00009F09FC081E00E945A0184E391E00E94C2
:100F0000D2010E94DC06813309F059C081E00E94C1
:100F10005A0182E491E00E94D2010E94DC068133F2
:100F2000C1F402361105ACF4E1E0F0E0EC0FFD1F76
:100F3000E00FF11F83E78083F801319681E090E0B4
:100F40008C0F9D1FE80FF91F0E5F1F4F88E28083F3
:100F50006AC08233C1F402361105ACF4E1E0F0E07E
:100F6000EC0FFD1FE00FF11F83E68083F80131963F
:100F700081E090E08C0F9D1FE80FF91F0E5F1F4F5F
:100F800088E2808350C0833309F04DC002361105DA
:100F90000CF049C0E1E0F0E0EC0FFD1FE00FF11FA5
:100FA00084E78083F801319681E090E08C0F9D1FEB
:100FB000E80FF91F0E5F1F4F88E2808334C0823331
:100FC00091F581E00E945A0184E591E00E94D201EE
:100FD0000E94DC068133C1F402361105ACF4E1E075
:100FE000F0E0EC0FFD1FE00FF11F8CE48083F801AF
:100FF000319681E090E08C0F9D1FE80FF91F0E5F86
:101000001F4F88E280830FC0823369F403361105D5
:1010100054F4E1E0F0E0EC0FFD1FE00FF11F8CE66F
:1010200080830F5F1F4FB801CE0101960E94DF0140
:10103000F3CE033611050CF0EFCE833551F0813439
:1010400041F08C3431F0833721F0833611F084374E
:10105000E9F4023611050CF0DFCEF8013196A1E07B
:10106000B0E0AC0FBD1FA00FB11F8C930E5F1F4FE0
:1010700081E090E08C0F9D1FE80FF91F88E28083CC
:10108000B801CE0101960E94DF01C6CE78019FEF24
:10109000E91AF90AE1E0F0E0EC0FFD1FE00FF11FA3
:1010A0008083B701CE0101960E94DF018701B4CE93
:1010B0005058BB27AA270E9470080C941A0A0E9455
:1010C000E10938F00E94E80920F039F49F3F19F453
:1010D00026F40C94DE090EF4E095E7FB0C94D80995
:1010E000E92F0E943F0A58F3BA1762077307840773
:1010F000950720F079F4A6F50C94610A0EF4E095BA
:101100000B2EBA2FA02D0B01B90190010C01CA01C1
:10111000A0011124FF27591B99F0593F50F4503E6C
:1011200068F11A16F040A22F232F342F4427585F5E
:10113000F3CF469537952795A795F0405395C9F776
:101140007EF41F16BA0B620B730B840BBAF091502E
:10115000A1F0FF0FBB1F661F771F881FC2F70EC0CD
:10116000BA0F621F731F841F48F4879577956795A0
:10117000B795F7959E3F08F0B0CF9395880F08F08C
:101180009927EE0F9795879508950E94B40908F462
:1011900081E008950E94F109E3950C942B0A0E94C6
:1011A000E3080C941A0A0E94E80958F00E94E10929
:1011B00040F029F45F3F29F00C94D80951110C94A8
:1011C000620A0C94DE090E943F0A68F39923B1F386
:1011D000552391F3951B550BBB27AA27621773075D
:1011E000840738F09F5F5F4F220F331F441FAA1FF1
:1011F000A9F335D00E2E3AF0E0E832D091505040AD
:10120000E695001CCAF72BD0FE2F29D0660F771F5A
:10121000881FBB1F261737074807AB07B0E809F040
:10122000BB0B802DBF01FF2793585F4F3AF09E3FC5
:10123000510578F00C94D8090C94620A5F3FE4F3EE
:10124000983ED4F3869577956795B795F7959F5F08
:10125000C9F7880F911D9695879597F90895E1E054
:10126000660F771F881FBB1F621773078407BA07B3
:1012700020F0621B730B840BBA0BEE1F88F7E0950E
:1012800008950E9448096894B1110C94620A089567
:101290000E94470A88F09F5798F0B92F9927B751B5
:1012A000B0F0E1F0660F771F881F991F1AF0BA950A
:1012B000C9F714C0B13091F00E94610AB1E00895FD
:1012C0000C94610A672F782F8827B85F39F0B93FEF
:1012D000CCF3869577956795B395D9F73EF49095BD
:1012E0008095709561957F4F8F4F9F4F0895E8943B
:1012F00009C097FB3EF490958095709561957F4F5E
:101300008F4F9F4F9923A9F0F92F96E9BB2793950B
:10131000F695879577956795B795F111F8CFFAF41B
:10132000BB0F11F460FF1BC06F5F7F4F8F4F9F4F4C
:1013300016C0882311F096E911C0772321F09EE8AA
:10134000872F762F05C0662371F096E8862F70E010
:1013500060E02AF09A95660F771F881FDAF7880FEA
:101360009695879597F90895990F0008550FAA0B40
:10137000E0E8FEEF16161706E807F907C0F01216A8
:101380001306E407F50798F0621B730B840B950BAB
:1013900039F40A2661F0232B242B252B21F4089500
:1013A0000A2609F4A140A6958FEF811D811D08959D
:1013B00097F99F6780E870E060E008959FEF80EC08
:1013C000089500240A9416161706180609060895AB
:1013D00000240A94121613061406050608950C94A8
:1013E000DE090E94470AD8F3E894E0E0BB279F5744
:1013F000F0F02AED3FE049EC06C0EE0FBB0F661F90
:10140000771F881F28F0B23A62077307840728F015
:10141000B25A620B730B840BE3959A9572F780387E
:1014200030F49A95BB0F661F771F881FD2F790483C
:101430000C942C0C092E0394000C11F4882352F008
:10144000BB0F40F4BF2B11F460FF04C06F5F7F4FF0
:101450008F4F9F4F0895EF93E0FF07C0A2EA2AED58
:101460003FE049EC5FEB0E9470080E941A0A0F905F
:10147000039401FC9058ECE7F0E00C94660C57FDE7
:101480009058440F551F59F05F3F71F04795880FF2
:1014900097FB991F61F09F3F79F087950895121689
:1014A00013061406551FF2CF4695F1DF08C0161635
:1014B00017061806991FF1CF8695710561050894E6
:1014C0000895E894BB2766277727CB0197F90895FD
:1014D0000E94780A29ED3BE54EED5EE30C94C00ACC
:1014E00016F00C942A0C0C94DE0968940C94D8091C
:1014F0000E94470AA8F39923C1F3AEF3DF93CF9379
:101500001F930F93FF92C92FDD2788232AF021977D
:10151000660F771F881FDAF720E030E040E85FEBC6
:101520009FE3883920F0803E38F021968F770E9423
:101530005908EAE9F0E004C00E945908E7ECF0E03D
:101540000E943F0C8B01BE01EC01FB2E6F5771090D
:101550007595771F880B990B0E94790928E132E76E
:1015600041E35FE30E94D30AAF2D9801AE01FF90E3
:101570000F911F91CF91DF910E9470080C941A0A6D
:101580000E94D30A0C941A0A0E94E10938F00E94C2
:10159000E80920F0952311F00C94D8090C94DE0989
:1015A00011240C94620A0E943F0A70F3959FC1F3C4
:1015B000950F50E0551F629FF001729FBB27F00D01
:1015C000B11D639FAA27F00DB11DAA1F649F662756
:1015D000B00DA11D661F829F2227B00DA11D621FA5
:1015E000739FB00DA11D621F839FA00D611D221F5F
:1015F000749F3327A00D611D231F849F600D211D43
:10160000822F762F6A2F11249F5750409AF0F1F0C5
:1016100088234AF0EE0FFF1FBB1F661F771F881F2E
:1016200091505040A9F79E3F510580F00C94D80985
:101630000C94620A5F3FE4F3983ED4F38695779565
:101640006795B795F795E7959F5FC1F7FE2B880FD4
:10165000911D9695879597F90895FA01EE0FFF1F52
:10166000309621053105A1F16115710561F48038CD
:10167000BFE39B0749F168949038810561F0803899
:10168000BFEF9B0741F099234AF5FF3FE105310584
:10169000210519F1E8940894E795D901AA2329F4C2
:1016A000AB2FBE2FF85FD0F310C0FF5F70F4A6958C
:1016B000E0F7F73950F019F0FF3A38F49F779F932D
:1016C0000DD00F9007FC9058089546F00C94DE0959
:1016D00060E070E080E89FE308954FE79F775F93B5
:1016E0004F933F932F930E94780A2F913F914F91F0
:1016F0005F910E94C00A0C94F80B9F930E94F1091D
:101700000F9007FCEE5F0C942B0A19F416F40C945E
:10171000DE090C942A0C0E94470AB8F39923C9F3F6
:10172000B6F39F57550B87FF0E94380C0024A0E6A4
:1017300040EA900180585695979528F4805C660F92
:10174000771F881F20F026173707480730F4621BE1
:10175000730B840B202931294A2BA69517940794E3
:10176000202531254A2758F7660F771F881F20F05C
:1017700026173707480730F4620B730B840B200DD4
:10178000311D411DA09581F7B901842F9158880F13
:10179000969587950895DF93D92F0E94F109E695D4
:1017A000D7952AED3FE049E45FE3B33A6207730758
:1017B00084079507D7953AF0A2EA49EC90680E9411
:1017C00070080E941A0AE4EFF0E00E94660CDD0F38
:1017D00013F00E947A0CDD0F0BF49058DF910895FE
:1017E00029F416F00C94D8090C94610A0C94DE09C3
:1017F0000E94470AA8F39638A0F707F80F92E894DA
:101800002BE33AEA48EB5FE70E94D60A0F920F9269
:101810000F924DB75EB70F920E94BC0CE7E1F1E06A
:101820000E943F0C4F915F91EF91FF91E595EE1F64
:10183000FF1F49F0FE57E0684427EE0F441FFA955A
:10184000E1F74195550B0E94860C0F9007FE0C9412
:101850007A0C08959F3F31F0915020F48795779549
:101860006795B795880F911D9695879597F9089577
:1018700091505040660F771F881FD2F70895DF936D
:10188000CF931F930F93FF92EF92DF927B018C0116
:10189000689406C0DA2EEF010E94D30AFE01E89494
:1018A000A5912591359145915591A6F3EF010E949F
:1018B0007008FE019701A801DA9469F7DF90EF90B4
:1018C000FF900F911F91CF91DF9108959F938F9378
:1018D0007F936F93FF93EF939B01AC010E94C00A2B
:1018E000EF91FF910E943F0C2F913F914F915F919B
:1018F0000C94C00A9B01AC0160E070E080E89FE3BB
:101900000C94CF080C94D8090C942A0C0E94470A16
:10191000D8F39923C9F3940F511DA3F3915050406C
:1019200094F059F0882332F0660F771F881F91508A
:101930005040C1F79E3F51052CF7880F911D969599
:10194000879597F908955F3FACF0983E9CF0BB27D0
:10195000869577956795B79508F4B1609395C1F72B
:10196000BB0F58F711F460FFE8CF6F5F7F4F8F4FC9
:101970009F4FE3CF0C94620AFA01DC01AA0FBB1F50
:101980009B01AC01BF5728F4222733274427507806
:1019900020C0B75190F4AB2F00244695379527957A
:1019A000011CA395D2F3002071F0220F331F441FB6
:1019B000B395DAF30ED00C94580861307105A0E8A5
:1019C0008A07B94630F49B01AC0166277727882740
:1019D0009078309621F02083318342835383089599
:1019E000EF920F931F93CF93DF93E80147FD02C05F
:1019F00034E001C034E1042E000C550B57FF03C046
:101A0000519541955109E32E022F242FAE010E94DA
:101A1000400DCE01DF91CF911F910F91EF9008956E
:101A2000662777270C949A0E46E651E00E94190D1E
:101A30000895FA01A191B081009719F41097E1F08F
:101A4000CD01DC01CD010D90002011F4C00113C0C7
:101A5000FB012191222319F02015D9F7F3CFFB01C7
:101A60002191201519F41E92119606C02223C1F768
:101A70000D900020A1F7D001FA01A193B083089541
:101A8000A9E0B0E0E6E4FDE00C94F5106A01122F45
:101A9000B02E2BE3201720F0FF24F394F00E02C0A9
:101AA0002CE3F22E0F2D27E0AE014F5F5F4F0E9417
:101AB000E80FBC014981842F8970813031F0E1FC4D
:101AC00006C0E0FE06C090E205C09DE203C09BE2B6
:101AD00001C090E05E2D507143FF3CC0911102C0E7
:101AE00083E001C084E0811718F4212F281B01C076
:101AF00020E051110BC0F601822F30E2882319F04B
:101B000031938150FBCFC20ED11C20E0992329F0E4
:101B1000D6019C93F60131966F01C6010396E2FE51
:101B20000AC03EE4D6013C9341E411964C931197D0
:101B300012963C9306C03EE6F601308341E64183AF
:101B40003283FC01322F40E2332309F442C0419337
:101B50003150FACF42FF44C0911102C083E001C06E
:101B600084E0811718F4212F281B01C020E05111B7
:101B70000BC0F601822F30E2882319F03193815097
:101B8000FBCFC20ED11C20E0992329F0D6019C93F3
:101B9000F60131966F01C6010396E2FE0BC039E4EF
:101BA000D6013C933EE411963C93119736E412968D
:101BB0003C9307C039E6F60130833EE6318336E6D2
:101BC0003283FC01322F40E2332319F0419331502C
:101BD000FBCFFC01E20FF11D10828EEF9FEFA6C03C
:101BE00021E030E0911102C020E030E01616170627
:101BF0001CF4FB01319602C0E1E0F0E02E0F3F1F24
:101C0000BB2021F0EB2DF0E0319602C0E0E0F0E0E7
:101C10002E0F3F1FE12FF0E02E173F071CF4121B81
:101C2000212F01C020E08E2D887159F4F601822FFA
:101C300030E2882319F031938150FBCFC20ED11CC2
:101C400020E0992329F0D6019C93F60131966F018B
:101C500051110BC0F601822F90E3882319F0919364
:101C60008150FBCFC20ED11C20E00F2D060F9A81B0
:101C7000342F307144FF03C0913309F40150101622
:101C800024F4093018F008E001C001E0AB0177FF4F
:101C900002C040E050E0FB01E41BF50BA1E0B0E026
:101CA000AC0FBD1FEA0FFB1F8EE2A82E4B01801A5E
:101CB00091080B2D10E01195019511094F3FBFEFD1
:101CC0005B0721F4D601AC9211966D01641775077C
:101CD0002CF08416950614F4818101C080E34150F4
:101CE00051093196D60111967D014017510724F014
:101CF000D6018C936701E2CF6417750739F49633E8
:101D000020F4953319F4311101C081E3F601808389
:101D1000F701822F90E2882319F091938150FBCF35
:101D2000F701E20FF11D108280E090E02996ECE0CF
:101D30000C941111A0E0B0E0E0EAFEE00C94F51084
:101D4000EC016B016115710519F0FB019183808332
:101D50007E01FFEFEF1AFF0A0881802F90E00E94BA
:101D6000C010892B11F0E701F3CF0D3239F47E0159
:101D700082E0E80EF11C098111E008C00B3229F461
:101D80007E0192E0E90EF11C098110E0E701219744
:101D900043E050E068E471E0CE010E94C910892B55
:101DA000C1F4239645E050E063E471E0CE010E9467
:101DB000C910892B09F42596C114D10419F0F60134
:101DC000D183C0831111F6C060E070E080E89FE726
:101DD000FAC043E050E060E471E0CE010E94C91017
:101DE000892B59F4C114D10409F4E9C0F2E0EF0ED3
:101DF000F11CF601F182E082E2C020E030E0A901AE
:101E0000C0E0D0E0F70180EDA82EA00E89E08A1591
:101E100030F1912F9260B92E812F887012FF04C08B
:101E2000811124C0219622C081112197A5E0B0E044
:101E30000E94E410DC01CB01880F991FAA1FBB1F71
:101E40009C01AD012A0D311D411D511D283989E923
:101E50003807480789E1580748F0166006C09EEF2A
:101E6000A9120AC013FD40C01860B12E8FEFE81A06
:101E7000F80A00811B2DC6CF802F8F7D8534A1F5F8
:101E800080818D3211F4106106C08B3221F03196C1
:101E900061E070E004C08181329662E070E08053BE
:101EA0008A3018F0E61BF70B1FC060E070E0603866
:101EB0009CE079075CF4DB01AA0FBB1FAA0FBB1FD4
:101EC0006A0F7B1F660F771F680F711D3196DF0148
:101ED00011978C9180538A3050F314FF03C0719591
:101EE00061957109C60FD71F11FF08C0C114D10435
:101EF00029F0CF010197F60191838083CA01B901CE
:101F00000E947709212F2370233019F04B015C01C7
:101F100006C04B015C01B7FAB094B7F8B09420E06A
:101F200030E0A901C501B4010E94C508882309F465
:101F30003EC0D7FF06C0D195C195D1090FE511E08C
:101F400002C007E711E06801F8E1CF1AD10890E27A
:101F5000E92EF12CCE15DF0574F0F80125913591AD
:101F600045915491C501B4010E94C00A4B015C0126
:101F7000CE19DF09EFCF04501109F594E7940C1541
:101F80001D0541F78A2D880F8B2D881F8F3F49F043
:101F900020E030E0A901C501B4010E94C50881110B
:101FA00006C082E290E090936B0180936A01C501C4
:101FB000B40109C060E070E080E89FEF04C060E019
:101FC00070E080EC9FE7CDB7DEB7ECE00C94111128
:101FD000283008F027E03327DA01990F311D87FDFB
:101FE000916000966105710539F432602E5F3D9372
:101FF00030E32A95E1F708959F3F30F0803871056E
:10200000610509F03C5F3C5F3D93913008F08068CA
:10201000911DDF93CF931F930F93FF92EF92192F90
:10202000987F9695E92F96959695E90FFF27EB52A5
:10203000FE4F99273327EE24FF24A701E7010590DF
:102040000894079428F4360FE71EF81E491F511D07
:10205000660F771F881F991F0694A1F705900794B4
:1020600028F4E70EF81E491F561FC11D770F881F61
:10207000991F661F0694A1F70590079428F4F80E9F
:10208000491F561FC71FD11D880F991F661F771F35
:102090000694A1F70590079420F4490F561FC71F17
:1020A000D81F990F661F771F881F0694A9F7849180
:1020B0001095177041F0D695C79557954795F794A9
:1020C000E7941A95C1F7EBE7F1E068941590159144
:1020D00035916591959105907FE27395E118F10A2C
:1020E000430B560BC90BD009C0F7E10CF11E431F7F
:1020F000561FC91FD01D7EF4703311F48A95E6CFA8
:10210000E894015030F0080F0AF40027021708F491
:10211000202F2395022F7A3328F079E37D932A9597
:10212000E9F710C07D932A9589F6069497956795EF
:10213000379517951794E118F10A430B560BC90B05
:10214000D00998F023957E9173957A3308F070E367
:102150007C932013B8F77E9170617D9330F0839566
:1021600071E37D9370E32A95E1F71124EF90FF90DE
:102170000F911F91CF91DF91992787FD9095089539
:1021800091110C94E110803219F089508550C8F7F4
:102190000895FB01DC014150504088F08D9181345D
:1021A0001CF08B350CF4805E659161341CF06B354E
:1021B0000CF4605E861B611171F3990B0895881B06
:1021C000FCCF9927882708950E942611A59F900D7E
:1021D000B49F900DA49F800D911D112408952F92FE
:1021E0003F924F925F926F927F928F929F92AF92A7
:1021F000BF92CF92DF92EF92FF920F931F93CF93F4
:10220000DF93CDB7DEB7CA1BDB0B0FB6F894DEBF8A
:102210000FBECDBF09942A88398848885F846E84B0
:102220007D848C849B84AA84B984C884DF80EE80FA
:10223000FD800C811B81AA81B981CE0FD11D0FB603
:10224000F894DEBF0FBECDBFED010895A29FB0018F
:10225000B39FC001A39F700D811D1124911DB29FDA
:0E226000700D811D1124911D0895F894FFCF7B
:10226E007371727400616273006C6F67006C6F67DC
:10227E005F0073696E00636F7300200053796E7494
:10228E006178204572726F72004D617468204572DC
:10229E00726F7200313A545249472020323A4C4FF5
:1022AE004700313A73696E20323A636F7320333AC6
:1022BE0074616E00313A6C6F6728782920323A6C5F
:0622CE006F675F61620012
:00000001FF
